:020000022000DC
:1070000000F003206D7302005573020057730200F5
:10701000597302005B7302005D7302000000000000
:107020000000000000000000000000005F7302008C
:1070300061730200000000006373020065730200C8
:1070400067730200677302006773020067730200D0
:107050006773020067730200C1D003006773020008
:107060006773020067730200C9A40300677302001C
:1070700067730200677302006773020067730200A0
:10708000677302004146040031D3020067730200B7
:10709000A54604006773020095DB030067730200D6
:1070A0006773020067730200677302006773020070
:1070B0006773020067730200000000000000000018
:1070C0006773020067730200677302006773020050
:1070D0006773020067730200677302006773020040
:1070E000677302006773020067730200000000000C
:1070F00000000000677302000000000067730200D8
:10710000000000000000000000000000000000007F
:10711000000000000000000000000000000000006F
:10712000000000000000000000000000000000005F
:10713000000000000000000000000000000000004F
:10714000000000000000000000000000000000003F
:10715000000000000000000000000000000000002F
:10716000000000000000000000000000000000001F
:10717000000000000000000000000000000000000F
:1071800000000000000000000000000000000000FF
:1071900000000000000000000000000000000000EF
:1071A00000000000000000000000000000000000DF
:1071B00000000000000000000000000000000000CF
:1071C00000000000000000000000000000000000BF
:1071D00000000000000000000000000000000000AF
:1071E000000000000000000000000000000000009F
:1071F000000000000000000000000000000000008F
:10720000344935480A1A02D0072291438D46334942
:1072100033480A1A06D00722914381F309880222D3
:1072200082F314882F483049304A00F042F8304841
:107230003049314A00F03DF830483149314A00F0D8
:1072400038F831483149324A00F033F83148324990
:10725000324A00F02EF832483249334A00F029F819
:1072600032483349334A00F024F833483349002286
:1072700000F02AF832483349002200F025F832485D
:107280003249091A082902DB0022026041601F48C6
:107290001F49884205D00268043003B4904703BCFC
:1072A000F7E700208646EC4600200021284A904758
:1072B000FEE7884207D0521A05D0037801300B70E0
:1072C0000131013AF9D17047884202D00270013091
:1072D000FAE7704700F0032000E8032000F00320E5
:1072E00000F00320F86E0400002E0020B02E0020D5
:1072F000A0730200A07302009E4B0400F86E04000D
:10730000002E0020002E0020704F0400704F04005B
:10731000704F0400704F0400704F0400704F040061
:10732000704F0400704F0400F86E0400A86F040052
:10733000B02E0020B02E0020B02E0020CC5E002009
:10734000CC5E0020CC5E0020CC5E0020CC62002011
:10735000417B0200FEE7FEE7FEE7FEE7FEE7FEE711
:10736000FEE7FEE7FEE7FEE700F002B8FFF7FCBF2E
:1073700008484FF00701884385460748804707487B
:10738000016841F470010160BFF34F8FBFF36F8F4D
:10739000FFF736BF00F00320CDDF030088ED00E0EB
:1073A00041DF70470C4B1B6813F4804F03D00B4B2D
:1073B0001B68012B00DC704700B583B0084BD3F885
:1073C0000435084A00929C220749022007F098F8E9
:1073D00003B05DF804FB00BF482E0020442E0020BF
:1073E00000100140E04F0400D94F040010B586B0F2
:1073F0005068E0B11A4B1B6813F4804F03D0194B4F
:107400001B68032B01DC06B010BD174BD3F8043505
:107410004988147852780490039202940191134A97
:107420000092C3221249042007F06AF8EBE70C4BE4
:107430001B6813F4804FE6D00A4B1B68032BE2DD78
:10744000094BD3F804354988127802920191094A10
:107450000092C8220649042007F052F8D3E700BF83
:10746000482E0020442E002000100140005004004F
:10747000D94F04005450040000B583B0012A1ED037
:10748000022A35D03AB1244AB721032016F096FEDD
:1074900003B05DF804FB214B1B6813F4804FF7D059
:1074A0001F4B1B68032BF3DD1E4BD3F804351E4A1C
:1074B0000092AA221D49042007F022F8E8E70622DC
:1074C00032210F2000F0C2FD144B1B6813F4804FD3
:1074D000DED0134B1B68032BDADD124BD3F80435D7
:1074E000134A0092AF221149042007F009F8CFE7B0
:1074F0000A4B1B6813F4804FCAD0094B1B68032B3F
:10750000C6DD084BD3F804350A4A0092B322074976
:10751000042006F0F5FFBBE78C4F0400482E002046
:10752000442E00200010014080500400D94F040078
:10753000A0500400C050040030B587B0441C644B18
:107540001B6813F4804F03D0624B1B68032B07DCCE
:10755000032C11D9042C10D100238DF814300CE029
:107560005D4BD3F8043501945C4A0092EC225C49EF
:10757000042006F0C5FFEBE74CBB5A4A1378591CB0
:1075800011708DF815303223049364230393504B0C
:107590001B6813F4804F03D04E4B1B68032B1ADC7F
:1075A000022C27D9E31E012B25D84F4D35F8340F77
:1075B0000FF068FD022303AA05A928461CF0D6FC9B
:1075C00005469DF814100E2000F0D4FC37E001238E
:1075D0008DF81430D1E7404BD3F804359DF81420D2
:1075E0000192424A009240F203123D49042006F003
:1075F00087FFD5E7A4B9364B1B6813F4804F39D009
:10760000344B1B68032B35DD334BD3F80435384A34
:10761000009240F219123249042006F071FF29E06D
:10762000314D28880FF02EFD03AA05A928461CF02D
:107630005FFC05469DF814100D2000F09BFC112DF9
:107640003DD8DFE805F0173C3C3C093C3C26093CB2
:107650003C3C3C3C3C3C3C091D4B1B6813F4804FBC
:1076600003D01C4B1B68032B06DC062232210F20A3
:1076700000F0ECFC07B030BD174BD3F80435019493
:107680001C4A009240F225121549042006F038FFEA
:10769000EBE70F4B1B6813F4804FEBD00D4B1B68CF
:1076A000032BE7DD0C4BD3F804350194124A00920A
:1076B00040F231120A49042006F022FFDAE7002DD9
:1076C000D8D00E4A40F23511284616F077FDD1E7A2
:1076D000482E0020442E002000100140E4500400F9
:1076E000D94F0400192F0020B02E0020F8500400BC
:1076F000AC520400145104002C5104008C4F0400BF
:1077000000B583B03138032814D90D4B1B6813F42E
:10771000804F11D00B4B1B68032B0DDD0A4BD3F8A8
:1077200004350A4A009240F243120949042006F047
:10773000E7FE01E0FFF700FF03B05DF804FB00BFC8
:10774000482E0020442E002000100140AC520400BE
:10775000D94F040000B58DB02022002103A81DF0F0
:10776000B9F901238DF80C3007238DF80F3006236B
:107770008DF814301F4B07931F4B0B931F4903A821
:107780000AF0F0FE60B30B2829D11D4B1B6813F4DF
:10779000804F03D01B4B1B68032B14DC184B1B685A
:1077A00013F4804F1CD0174B1B68032B18DD164BAE
:1077B000D3F80435154A00924FF4B37214490420EB
:1077C00006F09EFE0CE0104BD3F80435114A0092EF
:1077D00040F265120E49042006F092FEDEE710B971
:1077E0000DB05DF804FB0C4A40F26B1116F0E6FC9C
:1077F000F6E700BF99790200B9780200182F00203F
:10780000482E0020442E002000100140A851040002
:10781000D94F0400585104008C4F040000B583B0C8
:107820001D4A042146F2010006F04EFE1B4B1B6868
:1078300013F4804F03D01A4B1B68032B13DC1CF08E
:1078400035FFE0B900F042FC164800F073FCE0B9E7
:1078500000F02CFE00F060FE00F08CFEFFF77AFFD7
:1078600003B05DF804FB104BD3F804350F4A0092C7
:107870004FF4B9720E49042006F042FEDFE70D4ACC
:107880004FF4BA7116F09AFCDCE70A4A4FF4BC7167
:1078900016F094FCDCE700BF9DE40200482E0020B7
:1078A000442E00203975020000100140E45104000C
:1078B000D94F04008C4F040010B582B0194B1B68DF
:1078C00013F4804F03D0184B1B68032B01DC0024FA
:1078D00011E0164BD3F80435154A009240F24912D4
:1078E0001449042006F00CFEF1E7134A4FF4A97185
:1078F00016F064FC0134012C12D8104B342000FB2C
:1079000004300F4B03630023836280F82C3080F82F
:107910002D30611CC9B21CF0B5FA0028EAD0E4E7AA
:1079200002B010BD482E0020442E0020001001405F
:1079300014520400D94F04008C4F0400B02E0020D4
:10794000A052040000B583B00E4B1B6813F4804FA7
:1079500003D00D4B1B68032B09DC0322C8210F2029
:1079600000F074FB0AF05EFE03B05DF804FB074B09
:10797000D3F80435064A0092CF220649042006F0C7
:10798000BFFDEAE7482E0020442E002000100140F1
:1079900034520400D94F040008B50378232B00D0DB
:1079A00008BDFFF7CFFFFBE710B5044600210F200D
:1079B00000F036FB04EB840462003221032000F067
:1079C00045FB10BD08B500F073FB08BD00B585B0E0
:1079D00003A810F01FFF0D4B1B6813F4804F03D05A
:1079E0000B4B1B68032B02DC05B05DF804FB094B55
:1079F000D3F80435BDF80C200192074A0092852285
:107A00000649042006F07CFDEEE700BF482E00206A
:107A1000442E00200010014050520400D94F0400B1
:107A200030B58BB06421234800F01AFA224B1B7842
:107A30008BB903AC214D0FCD0FC495E8070084E846
:107A4000070003A800F0A4F938B11D4A4FF4CB7128
:107A500016F0B4FB01E0FFF7B9FF00F0B1FE00F053
:107A6000A1FB0AF0D1FD98B9164B1B6813F4804FA7
:107A700003D0154B1B68032B10DC00210F2000F0F6
:107A8000CFFA0222C8210F2000F0E0FA0BB030BD7F
:107A90000B4A40F29F1116F091FBE5E70B4BD3F830
:107AA00004350B4A009240F2A1120A49042006F064
:107AB00027FDE2E701770200182F0020845204001E
:107AC0008C4F0400482E0020442E0020001001405E
:107AD000AC520400D94F040000B583B0134B1B68AF
:107AE00013F4804F03D0124B1B68032B13DC00F000
:107AF00013FD00F03FFDFFF769FF00F0D9FA002108
:107B00000F2000F08DFA0422C8210F2000F09EFA09
:107B100003B05DF804FB074BD3F80435064A009226
:107B20008A220649042006F0EBFCE0E7482E0020FC
:107B3000442E00200010014068520400D94F040078
:107B400008B5FFF76BFEFFF76BFFFFF729FCFCE7BB
:107B500069DF704703781F2B00D07047014B01226B
:107B60001A70FAE71D2F00203A4B1B78002B70D0BB
:107B700000B587B0012804D0032863D007B05DF8B2
:107B800004FB0023019301A9012015F0A5FE0028A4
:107B900042D1002303930122114662F307118DF8AD
:107BA0000C108DF80D200493ADF814301123ADF8AE
:107BB0001630019A03A94120FFF7CAFF78BB01A83C
:107BC00015F0E4FE70BB244B1B6803B198470123FA
:107BD000029302A90DF1020011F06EFB28BBBDF863
:107BE000020010F0E1FF0DF1010111F081F9F8B987
:107BF0000BF0D2FF9DF8011000200CF0C7FAD0B9AD
:107C000004F054F9D8B9134B00221A70124B5B6878
:107C1000002BB3D09847B1E716F0C2FAB9E716F0D7
:107C2000BFFACCE716F0BCFACDE716F0B9FAD6E702
:107C300016F0B6FADCE7784600F080FDE0E716F0D3
:107C4000AFFAE0E715F01CFF002897D016F0A8FA6D
:107C500094E770471C2F0020202F002008B5064B0A
:107C600001221A70054804F08FF904F071F900B987
:107C700008BD16F095FAFBE71C2F0020002E00200F
:107C800008B503781C2B00D008BD074B1B78002BD0
:107C9000FAD015F039FF18B9044804F079F9F3E780
:107CA00016F07EFAF8E700BF1C2F0020002E0020FF
:107CB00008B5094B1B7863B90849094816F02AFF33
:107CC00040B90323002207494969074816F03EFFDF
:107CD00000E0082008BD00BF1D2F00203C2F002021
:107CE000A8320020202F00207431002008B503782E
:107CF000023B082B3FD8DFE803F01C05113E3E2C69
:107D00003E3E36001E4B9B68002B34D0007A002884
:107D100031D01C4A0121117098472CE0184BDB68C8
:107D20004BB3184A127832B3164A002111709847A3
:107D300021E0154B1B784BB9114B1B691BB1114A44
:107D4000002111709847FFF7B3FF14E0FFF786FF9B
:107D500011E010220A4B99690C4816F081FF50B1CE
:107D600016F01EFA07E08168C0680AF07BFB18B9BC
:107D7000054B01221A7008BD16F012FAF8E700BF91
:107D8000202F00201A2F00201B2F002074310020EC
:107D900070B586B00446214A03AB07CA03C323F873
:107DA000022B120C1A701E4E35460FCC0FC594E8EC
:107DB000070085E80700B369002B2DD0194B00930D
:107DC00003AB194A19491A4816F062FE034610B16E
:107DD000184606B070BD174818F0BCFB01461448A1
:107DE00016F082FE03460028F2D1134818F02CFD4D
:107DF00003460028ECD1104818F05CFD01460C4801
:107E000016F072FE03460028E2D10C4804F0BCF8DC
:107E1000FFF74EFF0346DBE70723D9E7C45404000E
:107E2000202F0020ED7C02003C2F0020A8320020F3
:107E3000743100205C2F0020243100200C2E002003
:107E400008B5064B1B681BB906E0044B1B68984736
:107E500013F0B0FC0028F8DA08BD00BFE8320020BB
:107E600010B50C46144B1860144A012114481CF03C
:107E700057FCA0B9610CE00341F26F7200238B4202
:107E800008BF824210D24FF47A7200231CF0C0FC6B
:107E9000014600220B481CF059FC38B910BD0A4AB3
:107EA0004A2116F08BF9E5E70521F2E7064A4B2156
:107EB00016F084F9F2E700BFE8320020417E0200AC
:107EC00024550400EC320020D054040070B505465F
:107ED000002403E00D4A93420ED80134032C14D839
:107EE0000B4B1B5DAB42F8D10A4B1E6804F036FB0E
:107EF000331AEFD5831BEDE704F030FB054B186018
:107F0000054B1B6820469847E7E770BD801A0600BE
:107F10003055040038330020343300201F280CD99A
:107F200000F01F00064BD3F8043523FA00F010F0E0
:107F3000010F0CBF0120002070474FF0A043F2E773
:107F40000003005070B505460024264606E0084BA5
:107F5000185DFFF7E3FFA04006430134032C04D86B
:107F60000123A3402B42F8D0F1E7304670BD00BF9B
:107F70003455040008B511B114F0ACFF08BD14F07D
:107F800099FFFBE770B5054600240BE0094B1E5D29
:107F90003046FFF7C3FF80F00101C9B23046FFF75A
:107FA000E9FF0134032C04D80123A3402B42F8D06D
:107FB000ECE770BD3455040010B5144B1B684BB191
:107FC000134B1868FFF7DEFF104B1C68013C1C6068
:107FD00024B110BD002016F0E3F8F1E70D481CF0C5
:107FE000D7FB09E00C4B1968E14001F001010B4B94
:107FF000185DFFF7BFFF0134032CEAD80123A3402B
:10800000034A12681342F6D0ECE700BF0C3300209D
:1080100010330020143300203C330020345504007A
:1080200070B505460E46002405E03146064B185D46
:10803000FFF7A0FF0134032C04D80123A3402B42F7
:10804000F8D0F2E770BD00BF345504003AB338B53C
:108050000C461346132900D838BD114A10605B0046
:10806000013B104A1360FFF76DFF0F4B18600025AE
:10807000610CE0034FF47A72002310F5FA70694145
:108080001CF0C6FB01462A4608481CF05FFB00288E
:10809000E2D10121024B1868FFF7C2FFDCE770470D
:1080A000103300200C3300203C3300201433002018
:1080B00008B504481CF06CFB0021034B1868FFF75F
:1080C000AFFF08BD143300201033002010B582B07C
:1080D00014F06CFE40B10024ADF804408DF8064069
:1080E00001238DF8053009E014F010FE0028F2D0CD
:1080F00016F056F8EFE716F053F80134032C07D8C2
:1081000001A9094B185D14F05BFE0028F5D0F2E7D9
:10811000064A012106481CF003FB08B902B010BD55
:1081200016F03EF8FAE700BF34550400B97F0200AC
:108130002C55040060B310B582B0164A106014F0DC
:1081400035FE40B1144B1B68ADF804301B0C8DF8A4
:10815000063000240EE014F0D9FD0028F2D016F00D
:108160001FF8EFE716F01CF801210C4B185D14F016
:108170003BFF0134032C08D8094A01A9074B185DBD
:1081800014F0B8FE0028EFD0ECE7002002B010BDDC
:108190000E20704734330020285504003055040069
:1081A000CD7E0200002800F082802DE9F04FD1B092
:1081B00004463F4B1B6813F4804F03D03D4B1B68B4
:1081C000032B0BDC3A4B1B6813F4804F03D0394B65
:1081D0001B68032B2ADC51B0BDE8F08F00230F2B66
:1081E0000FD8E25C34490D68100959002E5C0FA8C5
:1081F00000F8136002F00F020131AA5C425401330F
:10820000EDE70FAA00238DF85C3003F1804303F5FE
:108210008833D3F804350292284A0192284A009202
:1082200042222849042006F06BF9CBE7264BD3F80D
:1082300004350D932068020202F47F0242EA0062D4
:10824000010A01F47F4142EA010CA5882A0292B298
:10825000E688310289B2277A637A94F80AE094F8C2
:108260000B8094F80C9094F80DA094F80EB0E47B79
:108270000B94CDF828B0CDF824A0CDF82090CDF8FF
:108280001C80CDF818E00593049741EA162103916C
:1082900042EA152202924CEA106001900B4A0092C9
:1082A0000D9B43220749042006F02AF993E7704703
:1082B000482E0020442E00204C2E00209055040013
:1082C000A45504007E55040000100140AC55040084
:1082D00072DF704773DF704774DF70472DE9F04736
:1082E000A2B006460F469046314A02F10409002525
:1082F0005560D5602F480378C3EB431C2E4C644473
:1083000014602E49614491601F2191809181013355
:1083100003F0010303704FF03C0A5246294613A8AC
:108320001CF0D8FB06238DF84F30ADF848600123D0
:108330008DF84A30ADF85C3012AA1892ADF83C6066
:10834000ADF8408011970DEB0A021D928DF8783040
:108350005246294668461CF0BDFB02238DF80030CA
:108360004A46214613A815F0A9F990B9104B03F11C
:108370000C029968684615F0A1F968B9104A0C49D1
:108380001048FFF7A5FF082809D070B922B0BDE852
:10839000F08715F005FFE9E715F002FFEEE7002290
:1083A00003490848FFF794FFEFE715F0F9FEEDE702
:1083B00084330020403300204433002094330020D5
:1083C0001C2E0020182E0020B0F5202F0AD2074BBB
:1083D000A3FB0023DB0808B103B90123044A9381FE
:1083E000916070474FF6FF73F5E700BFCDCCCCCC62
:1083F0001C2E002008B50121054B1878FFF76AFFF5
:1084000018B9002004F096FC08BD15F0C9FEF8E785
:10841000182E002008B5044B1878FFF75DFF00B94F
:1084200008BD15F0BDFEFBE7182E002076DF704773
:108430007ADF70477CDF704769DF704708B515F059
:10844000AFFE08BD08B503F0A7FD08BD00B583B0B9
:10845000037823B1012B0BD003B05DF804FB3B2163
:108460004088FFF7E3FF0028F6D015F099FEF3E708
:10847000094B1B6813F4804FEED0084B1B68032B8D
:10848000EADD074BD3F80435064A00926822064914
:10849000042006F035F8DFE7482E0020442E0020A7
:1084A000001001404C5604003256040000B585B05F
:1084B00015F0E6FA18BB0023039303A9012015F079
:1084C0000BFAF8B9002300930122114662F3071159
:1084D0008DF800108DF801200193ADF808301123BC
:1084E000ADF80A30039A69464120FFF7A5FF60B94D
:1084F00003A815F04BFA58B905B05DF804FB15F068
:108500004FFED8E715F04CFEDCE715F049FEEFE72B
:1085100015F046FEF0E7000000B585B09DF80C3080
:10852000012262F3030362F307138DF80C3011226A
:108530000F4903A8FFF77EFF98B97823ADF8043000
:10854000C823ADF806300023ADF808304FF4C873E7
:10855000ADF80A3001A8FFF76BFF28B905B05DF848
:1085600004FB15F01DFEE8E715F01AFEF6E700BF64
:108570007856040000B58BB07823ADF80430C823DA
:10858000ADF806300023ADF808304FF4C872ADF8EE
:108590000A200693079301AA039240F6CD42049263
:1085A0004FF48032059203228DF81820ADF81A306E
:1085B0008DF81C30064B0893064B099303A815F061
:1085C00045FC10B90BB05DF804FB15F0E9FDF9E7C7
:1085D0004D8402003D8402000620704700B587B03C
:1085E00044F20103984262D01BD8012836D041F2F0
:1085F0000103984276D1474B1B6813F4804F36D065
:10860000454B1B68002B32DD444BD3F804350292F6
:108610000191434A009263224249012005F070FF14
:1086200025E044F2020398425CD13A4B1B6813F4F4
:10863000804F1CD0384B1B68002B18DD374BD3F80C
:10864000043510680390526802920191364A0092F4
:1086500069223449012005F053FF08E02D4B1B68C7
:1086600013F4804F03D02C4B1B68002B12DC4FF00F
:10867000A0434FF4F032C3F81825C3F80C25EFF3EC
:10868000108372B64DF6AD6C284B1B78002B3ED094
:1086900030BFF9E7214BD3F8043502920191244A07
:1086A000009260221F49012005F02AFFDFE7194BE5
:1086B0001B6813F4804FDAD0174B1B68002BD6DDF4
:1086C000164BD3F80435106804905068039002915B
:1086D00092680192174A009273221249012005F014
:1086E0000FFFC4E70B4B1B6813F4804FBFD00A4B3E
:1086F0001B68002BBBDD094BD3F8043501910E4AF2
:1087000000927B220749012005F0FAFEAFE707B08F
:108710005DF804FB482E0020442E0020001001408C
:1087200000570400D256040024570400342E0020C1
:10873000E4560400445704006857040000B583B0B1
:10874000014600230093054B01936A4644F2020060
:10875000FFF744FF03B05DF804FB00BF645704005B
:1087600010B40346044C006859689A68DB680FC46B
:108770005DF8044B704700BFD43300200D4B0E4A08
:1087800092E8030083E8030003F108020B4903C9E0
:1087900082E8030093F9062002F00F0242F0400243
:1087A0009A7193F9082002F03F0242F080021A7297
:1087B000704700BFD433002060000010A4000010F8
:1087C00000487047D433002000231F2B09D80749E5
:1087D00001EBC30000224280426001F833200133E4
:1087E000F3E7034B00221A60704700BFE433002018
:1087F000E434002030B405460F4B1B6800240AE027
:108800001F230E4A12F83300A0B102EBC3025288B4
:10881000AA4207D001341F2C0BD85A1E002BEFD0D0
:108820001346EEE7054A02EBC30252688A42F1D1D1
:1088300000E0002030BC7047E4340020E433002026
:1088400030B40A4A13680A4C04EBC30568806960B7
:10885000012104F833100B441360202B01D030BCED
:108860007047134600221A60F9E700BFE434002085
:10887000E4330020F0B414461D46002300E0013329
:10888000072B0ED81A0108498A5A8242F7D101EB08
:108890000312D2E90267AF4208BFA642EFD101201E
:1088A00000E00020F0BC7047E834002030B4C1691B
:1088B0008269C3880D0A0C06C2F30C01994216D2D4
:1088C0005B1A1344A3F50053E41845F10005094A67
:1088D0001368591C116003F00703808A064A1901C6
:1088E00002EB03135052C3E9024530BC70475B1AD8
:1088F0001344E9E768350020E8340020C37D002BED
:1089000042D0C3780A7802F0800203F07F03134359
:108910000B7002780B7803F07F0343EAC2130B70ED
:108920000378002B41D030B48378082B14BF002289
:1089300001224B7803F07F0343EAC2134B70C588D2
:1089400003F08003C5F3861423434B708A7802F04A
:10895000030242EA8502D2B28A70057A02F0FC0272
:10896000C5F3C10422438A70CB7803F01F0343EAA6
:108970004513DBB2CB70427A03F0E00302F01F0232
:108980001343CB7030BC7047C3780A7802F0BF0243
:108990009B0103F0400313430B70027903F0C00303
:1089A00002F03F0213430B70B3E770470023032B21
:1089B00031D810B402E00133032B28D8C3EBC30233
:1089C000164C04EB021292F84820012AF3D1C3EBB3
:1089D000C30204EB0212948AC2899442EBD1C3EB26
:1089E000C3020E4C04EB0212D2888A42E3D1C3EBDD
:1089F000C30204EB0212B2F8582012B1848AA242D8
:108A0000D9D1C3EBC303054800EB031000E00020FD
:108A10005DF8044B70470020704700BF943500207C
:108A2000002300E00133032B16D8C3EBC3020B492C
:108A300001EB021292F84820022AF3D1C3EBC302E1
:108A400001EB0212918A828A9142EBD1C3EBC303FC
:108A5000024800EB03107047002070479435002057
:108A600008B9042070470820704730B403460C460C
:108A70000978C17000214162A1680B2903D8217BCC
:108A8000F9B1012100E0012119700020987029B18D
:108A9000A1680731C9080139597218720121D975C5
:108AA00003F10C056169206985E80300E189998279
:108AB000A1691962217F9975216AD9629A6230BCD5
:108AC00070470021E0E700000021164B1B688B4235
:108AD00026D90023144A02EBC10252689A421DD9DA
:108AE00010B4114A52F8312002EBC30412F83320BB
:108AF00082420DD001330C4A02EBC10252689A4205
:108B0000EFD80131074B1B688B4205D90023F2E7F0
:108B100060685DF8044B70470020FAE70131D4E744
:108B2000002070476C3500207035002070B58CB087
:108B300006460D4614462C22002101A81BF0CAFF50
:108B40000F238DF80430ADF808604FF0000365F393
:108B500000038DF80A308DF80B4001A801F0F6F9FA
:108B60000CB070BD30B58DB005460C462C220021EE
:108B700001A81BF0AFFF10238DF8043002958DF88B
:108B80000C4001A801F0E2F90DB030BD00B58DB088
:108B900010B913F1020F06D1074B186804F0F8FA68
:108BA0000DB05DF804FB01218DF8041002930392CF
:108BB00001A801F0CBF9EFE778350020F8B5069C65
:108BC000002960D01E460F4615685168D2F808C0CB
:108BD000D368E5602161C4F814C0A36115695169C7
:108BE000E5612162002363700278D20922705AB3D2
:108BF0000423BB4249D8E17D41B3037803F07F03EE
:108C0000E3700023A3709AB143789B0103F4FE53F1
:108C1000827843EA9203E3808378DB0003F0180351
:108C2000C27843EA52132372C37803F01F036372BE
:108C3000002363623378032B21D83278144B53F826
:108C40002230E3620020F8BD0123D2E70178C1F3AE
:108C50008011E170017801F03F01217142B190F97A
:108C60000130002B02DB0423A370CCE70823FBE7D1
:108C70000421A1700B44BB42C5D90920E3E7784623
:108C8000FFF75CFDD9E70920DDE70920DBE700BF3E
:108C90001859040070B50C461D4603789BB1042694
:108CA0003244A26000F10C032360836A6360C36AEC
:108CB000E36000232374204604F0DCFD10B96369EF
:108CC0001E442E6070BD0126EAE72DE9F0418EB00A
:108CD0000D4616461C46804600282DD0002D2FD06C
:108CE000002C31D0636A0233059304F10C00E37861
:108CF000002B2DD00121A27801AF3B46082A14BFDA
:108D00000022012204F089FB0697CDF81C80B2B244
:108D1000ADF820200B9515440C95A3788DF83430D0
:108D2000237B022B16D00023ADF8283005A804F0D1
:108D30006CFB0EB0BDE8F0817846FFF7FFFCCDE795
:108D40007846FFF7FBFCCBE77846FFF7F7FCC9E76F
:108D50000221D0E723692BB1236909931023ADF8D1
:108D60002830E3E77846FFF7E9FCF5E72DE9F04125
:108D700088B004460D46C37D002B3CD0082605FB79
:108D800006F8637AAB4238D0257201AB324602A9AD
:108D90002046FFF77FFF074648BB4DB994F8533094
:108DA00033B9A369C3F30C03E380012384F8533080
:108DB000E37D7BB994F8523063B91DBBE06EB4F823
:108DC0004A10A27823468A1A0146FFF77EFF012344
:108DD00084F8523007992046FFF790FDE16E324645
:108DE000414401981BF04DFE02A804F069FD38468D
:108DF00008B0BDE8F0810C26C1E7B4F84A60A6EBE4
:108E00000806C1E77846FFF799FCD7E770B5054635
:108E10000E4609B100230B6095F85040002104E094
:108E2000631C85F850300134E4B26B7AA34210D34E
:108E3000EA6C0123A3401A42F5D121462846FFF7E8
:108E400095FF014628B9002EEAD03368013333601C
:108E5000E6E7084670BDF0B589B004460E461546F3
:108E600083789A18C37D63B10B239A4221D801AB52
:108E700002A92046FFF70EFF074620B1384609B089
:108E8000F0BD0F23F1E707992046FFF737FDE37D9B
:108E900043B12A46314601981BF0F3FD02A804F0C5
:108EA0000FFDEBE723462A4601993046FFF70DFFF9
:108EB000F4E70927E2E7000010B5044690F84830CF
:108EC000012B0CD103F04AFB237B012B0BD0094B68
:108ED000D968014404F1300003F00CFB10BD784662
:108EE000FFF72CFCEEE7A17D024BDA681B6903FB60
:108EF0000121EEE77C35002030B583B0002403E08B
:108F00002846FFF7D9FF0134032C18D8C4EBC4035B
:108F10000C4A02EB031393F84830012BF3D10023E2
:108F20000193C4EBC40502EB051501A92846FFF720
:108F30006DFF0428E4D0019B002BE4D0E0E703B0F0
:108F400030BD00BF9435002038B5044690F8483055
:108F5000022B09D1064B1D6803F000FB411904F1F7
:108F6000300003F0C7FA38BD7846FFF7E7FBF1E7BA
:108F70007C35002038B5044690F84830022B10D1DB
:108F80000A4B5D7D5A689B6803FB052503F0E6FAF2
:108F9000411904F1500003F0ADFA012384F8683060
:108FA00038BD7846FFF7CAFBEAE700BF7C350020F2
:108FB00010B50446808A02F037FE01281CD1237BBD
:108FC000E3B194F91620002A1ADBE27D4AB1022BA4
:108FD00018D094F90330002B16DBA378B3B9002026
:108FE0000BE0E2780AB9012B12D1237893B9A37868
:108FF000042B11D1002000E0102010BD1020FCE750
:109000000720FAE71020F8E70720F6E70720F4E743
:109010000720F2E70020F0E70720EEE738B5044626
:1090200003784BB1C388C2698169808A06F0AAFDC2
:10903000054645B9284638BDC2698169808A06F06F
:109040009BFD0546F5E7E169002201F00101A08AD8
:10905000FFF76CFDEEE700002DE9F04780460E4675
:1090600017464B1EDBB2012B0FD8B7F5C07F10D8C7
:109070000024032C1AD8C4EBC403314A02EB0313B7
:1090800093F848304BB10134F3E77846FFF756FBCD
:10909000EBE77846FFF752FBEAE7C4EBC40502EBC7
:1090A0000515384609F0B5F9E86600E000255DB31E
:1090B000EB6E002B42D043462C4608F1300ED3F81D
:1090C00000C058689968DA68C4F800C06060A160A0
:1090D000E260103310347345F1D10023EB64A5F83E
:1090E0004A70012E13D06FF00103AB62002385F8A4
:1090F0006830144BAB652D66134BAB632D640120B8
:1091000002F018FA85F848602846BDE8F0870F4B52
:109110001B7D85F85130002385F8523085F8533097
:1091200085F85030D8F828206A65A5F858306FF0D7
:109130000103AB62064BAB632D64E0E71D46E3E73A
:1091400094350020579B0200A19402007C3500203A
:10915000ED94020000B585B000228DF80F20A0B17B
:109160000B46024602320A600DF10F01184604F068
:1091700050F99DF80F3043B10C4B1B6813F0040FEE
:1091800003D00B4B1B68032B04DC9DF80F0005B0CC
:109190005DF804FB074BD3F80435074A009240F210
:1091A00015420649042005F0ABF9EEE7482E0020F1
:1091B000442E002000100140D0570400C457040082
:1091C0002DE9F04391B005460E4614461F46D0F8EF
:1091D000188003784BB1C388C8F30C029A4230D28E
:1091E0009B1A4344A3F50053AB6105F10C00EB78E7
:1091F00053B30121AA780DF130094B46082A14BF58
:109200000022012204F009F9C5F81880CDF8109069
:109210000596AB78E21A92B2ADF8182032440A9261
:1092200009978DF82C300023ADF82030EB78002B17
:1092300040D02B7B022B09D000236B620193029359
:1092400024E09B1A4344CFE70221D3E71023ADF873
:1092500020302B690793EFE70134012C14D810ABB1
:1092600003EB840353F83C0C70B103A9FFF772FFC2
:109270000028F1D010AB03EB840454F83C3C6B6243
:10928000002011B0BDE8F083019B3BB102AB01AA05
:109290002979286A10F026FB0024DEE72B7B022BBD
:1092A0002CD105F10C01E88910F0D6FB0028C0D1C3
:1092B0000520E6E72B7B012B01D00520E1E7EB89B8
:1092C000ADF80430AB8AADF806300024012C13D879
:1092D0002946002341F8243F10AB03EB440333F845
:1092E0003C0C10F024FB03A9686AFFF733FF08B9B0
:1092F0000134EBE70020C4E70520C2E70520C0E702
:1093000070B5F0B00E4614461D4610AB0A46014635
:109310002046FFF755FF50B1214B1B6813F0040F97
:1093200003D0204B1B68052B2DDC70B070BD204690
:10933000FFF774FE0028F8D103AB01228DF80C2052
:10934000A28AADF80E20002204928DF8142010AAF3
:109350000692A178711AADF81C1008AA93E80300D0
:1093600082E803000AAB2169E06883E80300A37D7B
:109370008DF83830236A0C93636A0D930F9505A816
:1093800000F0E4FDD1E7084BD3F80435074A00921A
:1093900040F203720649062005F0B2F8C5E700BFA7
:1093A000482E0020442E002000100140E457040005
:1093B000C457040010B50446C06E09F02EF804F13D
:1093C000300003F07FF894F84830022B0AD0702266
:1093D000002120461BF07EFB002084F8480002F0AC
:1093E000A9F810BD04F1500003F06CF8EFE710B5D8
:1093F0008CB0044690F84830012B0FD101238DF832
:109400000430636D029303F0A9F8039001A800F003
:109410009DFD2046FFF7CEFF0CB010BD7846FFF74C
:109420008DF9EBE730B585B00D460446A8B194F848
:109430004830022B15D02946606DFFF793FB20467C
:10944000FFF7B8FF114B1B6813F0040F03D0104B4C
:109450001B68032B09DC05B030BD7846FFF76EF9B9
:10946000E5E72046FFF722FAE5E70A4BD3F8043593
:1094700094F8482002950192074A009240F2F312B4
:109480000649042005F03CF8E5E700BF482E00201F
:10949000442E00200010014010580400C45704005E
:1094A00008B508460021FFF7BDFF08BD08B5037BDE
:1094B000012B02D0FFF79BFF08BD0121FFF7B2FF90
:1094C000FAE7000008B590F8513053B1013B80F83D
:1094D0005130002380F85030034B186803F058FED9
:1094E00008BDFFF7E3FFFBE77835002010B50C4619
:1094F00091F84830012B03D12046FFF7E3FF10BD60
:109500007846FFF71BF9F7E7062976D1F0B585B065
:1095100015460678B20102F4FE5241788478C37889
:109520001B0443EA0463047943EA042344791C439B
:1095300076B242EA91012846FFF738FA0746E0B1D1
:10954000002E2FDBC289A98A8A422BD02B4B1B68A5
:1095500013F0040F3ED02A4B1B68012B3ADD294B38
:10956000D3F8043502910192274A009240F27D62BD
:109570002649022004F0C4FF2CE0204B1B6813F0A6
:10958000040F27D01E4B1B68012B23DD1D4BD3F886
:1095900004351F4A009240F279621C49022004F00F
:1095A000AFFF17E0002E17DBFD6C2543FD64BCB157
:1095B0003B78D3B17B7A5A1C01239340013B9D42F7
:1095C00017D0002187F850103846FFF71FFC3846A7
:1095D000FFF772FC05B0F0BDAB8AA7F85830E3E79F
:1095E00003213846FFF71EFFF4E77846FFF7A6F899
:1095F000E0E73846FFF7FBFEECE77047482E002017
:10960000442E00200010014064580400C457040098
:10961000345804002DE9F0418AB007460E4614463E
:109620001D461046FFF7FAFC50B994F80380B8F1D4
:10963000000F08D12B46224631463846FFF764FF1B
:109640000AB0BDE8F0814046FFF73EFA0246002826
:10965000F6D08DF80480236A0793A38AADF8123000
:1096600005AB2169E06883E80300A37D8DF8203015
:109670000297039623788DF81030E36A0993294600
:1096800001A89047DCE710B5547814F0010F03D01F
:10969000D47D14B1FFF7BEFF10BDFFF731FEFBE72D
:1096A00008B501390130FFF7EEFF08BDF0B5C7B0CE
:1096B0000F46164682783244C37D2BB14FF4807337
:1096C00093427CD3002303E04FF4C073F8E70133E7
:1096D000032B1AD8C3EBC3043B4D05EB041494F8D9
:1096E00048100129F3D1C3EBC30105EB01118C8AAA
:1096F000818A8C42EBD1C3EBC30105EB0111CC890C
:10970000C1898C42E3D1082552E00121FFF7A4FC76
:109710000446002855D032463946C06E1BF0B1F9D8
:109720000023459345A92046FFF770FB054608B185
:10973000042840D1459B0BBB244B1B6813F0040F3E
:1097400035D0234B1B68032B31DDB4F84A70802FD2
:1097500028BF80270023BB4214D2E26ED25C1D4991
:109760000D68100959002E5C04A800F8136002F07F
:109770000F020131AA5C42540133ECE72046FFF7A7
:109780009BFBD9E704AA002302F8173003F18043BA
:1097900003F58833D3F8043502920F4A01920F4A39
:1097A00000924FF4AC620E49042004F0A9FE00259B
:1097B000284647B0F0BD2046FFF7FCFDF8E7092535
:1097C000F6E70425F4E700BF94350020482E00207A
:1097D000442E00204C2E0020A8580400A45504005C
:1097E000C457040070B504460D461646FFF7E0FB6B
:1097F00030B923782BB1324629462046FFF756FF71
:1098000070BD324629462046FFF725FBF8E70000E9
:1098100038B504460D46CB695B780371CB691B787C
:1098200083F00103C370CB6943628B8A0B2B07D88B
:10983000CB7A002B35D10B7B012B02D0002300E02B
:1098400001232370002B31D0287B02282BD0FFF777
:1098500007F9A070AB8A03440B33174A82FB03233A
:109860005B10013B6372002323720023E37504F154
:109870000C0395E8030083E80300AB6923622B899E
:10988000A382AB7AA3752B6AA362DF23E362284627
:1098900010F010F920B12B78012B0AD0FF23E362DE
:1098A00038BD0123CDE7054B987DD0E70423A37095
:1098B000DBE72023F3E700BFABAAAA2A7C35002010
:1098C00010B54FF4E072002113481BF003F906F0C5
:1098D00025F90024114B1C608022214610481BF002
:1098E000F9F8104B104A1A60104A5A604CF2503284
:1098F0009A600F49D9601A6104221A759C75082272
:109900005A750C4803F024FC0B4B18600B4B1C6081
:109910000B4806F0FDFB10BD943500206835002093
:10992000E83400207C35002080969800F049020041
:1099300020A10700499B0200783500206C350020EB
:109940008D8B020008B506F009F908BD98B110B575
:109950008CB00446036983B1C36983B1836983B161
:1099600001466846FFF754FFA28A21696846FFF75F
:1099700039FF0CB010BD0E2070470E20F9E70E2005
:10998000F7E70E20F5E7000058B310B590B00A468F
:10999000044643683BB383693BB3014604A8FFF721
:1099A00064F8134B1B6813F0040F03D0114B1B68B2
:1099B000062B06DCA268616804A8FFF713FF10B04D
:1099C00010BD0D4BD3F804352278A16902910192A4
:1099D0000A4A009240F605020949072004F090FD6A
:1099E000E8E70E2070470E20E9E70E20E7E700BF0A
:1099F000482E0020442E002000100140B8580400DA
:109A0000C4570400037B012B01D00020704730B500
:109A100091B004460D46334B1B6813F0040F03D07E
:109A2000314B1B68032B41DC04A900230593CDF8BF
:109A30001730E288C2F3861092008DF811202A0EAA
:109A40008DF812202A0C8DF813202A0A8DF8142084
:109A50008DF815506278022A0CBF80221A4642EA1D
:109A600000028DF810204FF0060209924FF001021B
:109A70008DF82C20A28AADF82E200C938DF81C3086
:109A80000891226A0D928DF82830E36A0F9319D05D
:109A9000E389ADF82A30A37DF3B98DF838306FF043
:109AA000010107A8FFF770FF11B030BD0F4BD3F8CD
:109AB00004350F4A009240F263220E49042004F05C
:109AC0001FFDB1E70DF10E0103A80FF0E1FFBDF896
:109AD0000C30ADF82A30DEE7074B5B7D8DF838306F
:109AE000DDE700BF482E0020442E0020001001407A
:109AF000E4580400C45704007C35002090F8483036
:109B0000022B00D0704710B5044690F86830022B45
:109B100000D010BDC16CFFF775FF0028F9D10023FC
:109B200084F86830F5E7000010B5002407E0C4EBC6
:109B3000C402130103481844FFF7E0FF0134032C6B
:109B4000F5D910BD9435002008B5FFF7D5F9FFF71A
:109B5000EBFF012008BD10B50C4691F84830022BF0
:109B600006D1022384F868302046FFF7C7FF10BDF6
:109B70007846FEF7E3FDF4E7F0B583B00446C56927
:109B80008269C3882F0A2E06C2F30C05AB4232D974
:109B90005B1B1344A3F50053F61847F10007324648
:109BA0003B46A08AFEF766FE002840F08B802046E8
:109BB000FEF736FF054648B3D0F81CC08269C3885B
:109BC0004FEA1C214FEA0C60C2F30C0C9C4515D2E5
:109BD000A3EB0C031344A3F50053C01841F100019B
:109BE000B94208BFB0420DD38F4208BF864230D37E
:109BF000284603B0F0BD5B1B1344CDE7A3EB0C0379
:109C00001344EAE705212846FFF70CFCE388E269E4
:109C1000A169A08A06F088F8E8B9627A531CE17D50
:109C200099B3082202FB03F289B34FF48073934285
:109C300030D302212046FFF70FFA05460028D7D17E
:109C400000212046FFF7DEFE02210020FEF78AFFFA
:109C5000CEE70025CCE7E388E269A169A08A06F097
:109C6000DBF860B1237863B1617A4B1C0121994024
:109C700001392046FFF7C6FE2046FFF7CFF9002541
:109C8000B6E77846FEF75AFDEEE70C22CAE74FF436
:109C9000C073CCE70C4B1B6813F0040F03D00B4BC5
:109CA0001B68002B01DC0025A2E7094BD3F8043523
:109CB0000192084A009240F27F320749012004F0E5
:109CC0001FFCF0E7002593E7482E0020442E0020DB
:109CD00000100140F4580400C45704002DE9F0417D
:109CE00082B007460E46144698461046FFF744FFDA
:109CF000002846D00546404B1B6813F0040F03D0E4
:109D00003E4B1B68032B3FDC2846FFF71DF92B7BDE
:109D1000012B47D0EB6C217A01228A40134230D1CB
:109D20001A43EA64043E237AE27D002A42D04FF0CF
:109D3000080C0CFB03FC697A8B423ED0002A41D010
:109D40000823B34240D1AA69A3699A4209D205F116
:109D50000C0E0C340FCCAEE80F0094E803008EE834
:109D60000300E86E3246391D60441AF08AFEEC6C3E
:109D70002B7873B36B7A5A1C01239340013B9C42AE
:109D80002BD002B0BDE8F0811D4BD3F80435227A08
:109D900001921C4A009240F2A3321B49042004F0B5
:109DA000AFFBB1E795F86830002BB3D12846FFF739
:109DB000E1F8AFE74FF00C0CBBE70CEB0603A5F89E
:109DC0004A30C0E70C23BCE704212846FFF72AFBF2
:109DD000D7E77846FEF7B2FCCCE7E96C2846FFF7F8
:109DE00011FE43462A46B5F84A10E86EFFF74BFCD1
:109DF0002846FFF7DFFAC4E7482E0020442E002053
:109E00000010014008590400C45704002DE9F04136
:109E100090B000284CD00F4614461E468046002ABB
:109E200048D004AB00933346FEF7C8FE054618B190
:109E3000284610B0BDE8F08104A8FFF7B9F8054640
:109E40000028F5D100230293039302A960880FF044
:109E500003FE28B19DF8113043F001038DF8113055
:109E60002269E168208905F017FF38B19DF81130AB
:109E700003F0FE038DF81130002BD9D09DF811307E
:109E8000002BD5D013F0010F01D0039B08939DF850
:109E9000103033B1334604AA39464046FFF71EFF5F
:109EA000C6E7334604AA39464046FFF7F9FBBFE749
:109EB0000E25BDE70E25BBE7F8B508B30E460546EF
:109EC000164B1F68F7B93C46B4420FD205EBC403EA
:109ED0005B68D3B115F8340015F93430002B16DB6C
:109EE000B8B1FEF7F1FDB0B90134EDE70C4B43F822
:109EF000375003EBC7035E607B1C084A136002E027
:109F00000E2700E004273846F8BD0E27FBE70B2795
:109F1000F9E70F27F7E70F27F5E700BF6C350020BB
:109F200070350020084B196861B110B504E006488F
:109F300004F050FA214624B10C680B79002BF9D0BB
:109F4000F5E710BD704700BF5837002038B505460B
:109F500030B1104B1C68C4B10F4B01221A7004E0E1
:109F60007846FEF7EBFBF4E724683CB12379002B3D
:109F7000FAD154F8043C28469847F5E7064B1B787D
:109F8000022B03D0044B00221A7038BDFFF7CAFF22
:109F9000F8E700BF583700205437002010B50446BA
:109FA00030B100232372211D034804F0E8F910BDED
:109FB0007846FEF7C3FBF4E75837002010B5044697
:109FC00058B10A4B1B78013BDBB2012B09D8074B78
:109FD00002221A700123237210BD7846FEF7AEFBF1
:109FE000EFE7211D024804F0F5F9F5E754370020AA
:109FF000583700200A8883689B5A07339BB223F0A6
:10A00000030313449BB20288043A934200D900230D
:10A010000B80704710B582B004468368C91AADF84A
:10A0200006100DF10601FFF7E5FFBDF80630A06848
:10A03000184402B010BD0088043880B270474388CD
:10A040008268D018D1520123837070478268002340
:10A050009370438083807047073189B221F00301F8
:10A0600089B2428883889A4204D29B1A99421EDCA4
:10A070000020704710B59A420FD90488A41AA14253
:10A0800017D98B4217D3032C03D9836813440422B6
:10A090009A7000234380184604E0826813449B783A
:10A0A0000BB1042010BDFFF7D1FF0020FAE7042018
:10A0B00070470020F6E70420F4E738B504460D4663
:10A0C0008368828813448B4202D07846FEF736FBC1
:10A0D0000023AB70211D2046FFF78CFFA288A368E8
:10A0E00013449B78042B00D038BD0023A380FBE7EA
:10A0F00010B50C468368428813448B4202D07846E0
:10A10000FEF71CFB0023A37010BD70B50546144676
:10A110000E46002944D0002D46D0B6F1005F08D984
:10A120004FF08053D3F80C3103F50023B6EB832FA7
:10A130000ED3B6F5000F08D94FF08053D3F80C3189
:10A1400003F50053B6EB832F02D37846FEF7F6FAF9
:10A15000631E3344B3F1005F08D94FF08052D2F848
:10A160000C2102F50022B3EB822F0ED3B3F5000FC2
:10A1700008D94FF08052D2F80C2102F50052B3EB0F
:10A18000822F02D37846FEF7D9FA042C10D92C80FE
:10A1900000236B80AB80AE60043C3480B37070BD34
:10A1A0007846FEF7CBFAB6E77846FEF7C7FAB4E78B
:10A1B0007846FEF7C3FAEAE738B50446A0B16288EC
:10A1C000A36813449B78012B12D0EFF3108572B66D
:10A1D000A388A16819448B78032B0DD02046FFF784
:10A1E00035FF05B962B638BD7846FEF7A7FAE6E74F
:10A1F0007846FEF7A3FAE8E72046FFF70BFFA368CF
:10A20000C31A638000238370EBE72DE9F0410E460B
:10A2100014460546D0B1EEB16A88AB6813449B780A
:10A22000012B1BD024B32846FFF705FFA04221D302
:10A23000EFF3108872B621462846FFF70DFF074658
:10A2400080B1B8F1000F16D162B614E07846FEF77F
:10A2500075FAE0E77846FEF771FADDE77846FEF733
:10A260006DFADFE721462846FFF7E9FE3060E8E7B0
:10A27000092700E009273846BDE8F081F8B50C460B
:10A2800015460646E0B1FCB1A378012B20D1238806
:10A29000AB4221D325B3EFF3108772B6258002239A
:10A2A000A370F1183046FFF7A5FE7388B288934279
:10A2B00003D0B268134400229A7007B962B6F8BDA1
:10A2C0007846FEF73BFADEE77846FEF737FADBE73B
:10A2D0007846FEF733FADAE77846FEF72FFAD9E741
:10A2E0007846FEF72BFAD6E770B50C46054690B1D6
:10A2F000ACB1EFF3108672B6AA88AB6813449A78B3
:10A30000042A10D09A78022A15D0032A18D00520E2
:10A3100006B962B670BD7846FEF710FAE8E77846EF
:10A32000FEF70CFAE5E7291D2846FFF763FEAA8829
:10A33000AB681344E6E703229A7023600020E7E746
:10A340007846FEF7FBF90020E2E738B5044680B115
:10A35000EFF3108572B6A088A16801448B78042BB6
:10A360000BD08878022814BF0020012005B962B6FE
:10A3700038BD7846FEF7E2F9EAE72046FFF74AFEE5
:10A380000146EEE738B5054678B1EFF3108472B6B2
:10A39000A888A96801448878C31EDBB2012B08D8BD
:10A3A0002846FFF737FE0146F5E77846FEF7C6F97F
:10A3B000EBE7022814BF0020012004B962B638BDC3
:10A3C00070B50C46064678B194B1EFF3108572B6BD
:10A3D000A378012B10D0032B13D121463046FFF771
:10A3E0006CFE05B962B670BD7846FEF7A7F9EBE7DB
:10A3F0007846FEF7A3F9E8E721463046FFF778FEF6
:10A40000EFE77846FEF79AF9EBE710B5EFF3108423
:10A4100072B68388816819448B78042B06D08878BB
:10A42000B0FA80F0400904B962B610BDFFF7F2FD42
:10A430000146F4E7024B00221A769A600220704728
:10A440005C37002008B5064B986800221A605A60F5
:10A450009A60DA601A615A619A6105F019F808BDCC
:10A460005C37002000B585B00A4BDB6802228DF80E
:10A47000002001934FF480530293074A694601205C
:10A4800001F0E8FA18B9012005B05DF804FB0020DE
:10A49000FAE700BF5C3700207A37002000B585B0AE
:10A4A0000A4B1B6802228DF8002001934FF4805361
:10A4B0000293074A6946012001F0CCFA18B901203D
:10A4C00005B05DF804FB0020FAE700BF7C370020F0
:10A4D0007A370020164BDA68137951795B1A03F545
:10A4E0007F2303F6FF7302EB03339A4205D002F594
:10A4F00080520F4BDA600320704700B585B00D4BDA
:10A500001B6801208DF8000001930B4B039304237B
:10A5100002930A4A694601F09DFA18B1002005B07D
:10A520005DF804FB024B01221A760220F7E700BF18
:10A530005C3700207C370020803700207A370020ED
:10A5400000B585B00C4BDA680C4B1B680433012056
:10A550008DF800000192039340F6FC730293084AC1
:10A56000694601F077FA28B90120034B187605B047
:10A570005DF804FB0020FAE75C3700207C37002000
:10A580007A37002000B585B00A4B1B6801208DF892
:10A5900000000193084B039304230293074A694682
:10A5A00001F058FA18B9012005B05DF804FB00204D
:10A5B000FAE700BF7C370020683700207A37002098
:10A5C00010B584B0104BDA681478104B1B68043354
:10A5D00001208DF800000193039202940C4A694611
:10A5E00001F038FA70B9094B1B6804F0FC041C44F4
:10A5F0000434054B5C61D9680A780A441A61012069
:10A6000004B010BD0020FBE75C3700207C37002041
:10A610007A37002008B500230A2B09D8064A52F8D9
:10A620002320824201D00133F6E7044A536002E05E
:10A630007846FEF783F808BDB45904005C37002063
:10A6400010B5214BDB6853B11F4B1B7E5BB91E4B12
:10A650005B680A2B26D97846FEF770F822E0784628
:10A66000FEF76CF8F0E77846FEF768F8EFE7164A71
:10A670005368013353600A2B21D97846FEF75EF800
:10A680001DE0114B00225A6019E00F4B1B7E1BB1DD
:10A690000D4B02221A7012E0FFF7D4FE0FE00A4BB6
:10A6A0001B7E83B9084B5A68084B53F822309847F1
:10A6B00004460228E9D00328E3D00128D7D0012C92
:10A6C000EDD0032CEBD010BD5C370020B459040052
:10A6D000104B1B681B685A1E12F1030F18D8C3F3E6
:10A6E0000B020AB10020704710B50B4AD36000235B
:10A6F000137653760124147093600848FFF78AFF9D
:10A700000749204601F094F9FFF79AFF204610BD53
:10A71000002070477C3700205C37002065A40200D1
:10A7200025A7020008B50B78032B06D00B4B1B782E
:10A73000012B06D0022B0BD008BD084B00221A7645
:10A74000F4E7064B1B7E002BF6D1FFF779FFF3E70A
:10A750000B78032BF0D1FFF775FEEDE75C37002097
:10A7600000B585B0174BDB6818784FF6FF7203F51C
:10A770008051184405F082FCE0B10246114BD968C3
:10A780000B780B44984217D00E4B5B7E83B10E4B77
:10A7900001208DF8000001920393042302930B4AD9
:10A7A000694601F057F948B90120064B187606E0D2
:10A7B000074BEDE7012002E0012000E0002005B09A
:10A7C0005DF804FB5C3700205C5C04007A370020F5
:10A7D000585C040008B5104BDB681878002203F5BC
:10A7E0008051184405F04AFC08B1012008BD0A4B0D
:10A7F000DA68137951795B1A03F57F2303F6FF7347
:10A8000002EB03339A4205D002F58052024BDA6024
:10A810000320EBE70220E9E75C370020F0B585B0C4
:10A82000514BDE6872793379591E8A4214D006F58D
:10A8300080510D780D444D490968081D0F79074472
:10A840009B1A06EB03366B88013B9BB247F6FE6210
:10A85000934260D92C461AE00120434B58767EE0A3
:10A860007846FDF76BFF15E024F47F6424F00F04B5
:10A8700004F5805423781C44A64247D9A54247D208
:10A880006388013B9BB247F6FE62934211D923884D
:10A89000002BE5D0238804EB830323F47F6222F0AE
:10A8A0000F029342E0D06288B2F5FE4FDCD01C4626
:10A8B000E2E725462FE07846FDF740FF15E024F457
:10A8C0007F6424F00F0404F5805423781C44A642CE
:10A8D00020D9A5423BD26388013B9BB247F6FE627A
:10A8E000934211D92388002BE5D0238804EB8303FE
:10A8F00023F47F6222F00F029342E0D06288B2F527
:10A90000FE4FDCD01C46E2E7254604E0002502E0CD
:10A91000002500E00025E5B1144B19686A8801F5AF
:10A920008051384605F0AAFB074690B101200E4B36
:10A9300018768DF8000001950D4B039304230293C4
:10A940000C4A694601F086F858B92C46CAE700253A
:10A95000E1E7B5FA85F56D09034B5D76012005B099
:10A96000F0BD0020FBE700BF5C3700207C370020F3
:10A97000545C04007A3700202DE9F04186B0644B26
:10A980001B692BB1624B5B6933B14FF0000846E0A5
:10A990007846FDF7D3FEF5E77846FDF7CFFEF4E7FE
:10A9A0007846FDF7CBFE15E025F47F6525F00F0511
:10A9B00005F580552B781D44AF421CD9AC421ED200
:10A9C0006B88013B9BB247F6FE62934211D92B88FC
:10A9D000002BE5D02B8805EB830323F47F6222F064
:10A9E0000F029342E0D06A88B2F5FE4FDCD01D46DC
:10A9F000E2E72C4600E000241CB100943AE0002479
:10AA0000FAE700230093019B002B5CD14FF0010873
:10AA1000002C77D0628847F6FF739A4272D0B8F163
:10AA2000000F73D13A4B5A6922F47F6626F00F0665
:10AA3000B61A06F580561C69DF683B797A799B1A4D
:10AA400007EB0337002301936388013B9BB247F672
:10AA5000FE629342D1D92546B9E77846FDF76EFEEE
:10AA600023E024F47F6424F00F0404F58054237859
:10AA700023441C46A742C6D92388019A02EB8302CD
:10AA80009642C0D9009B634023F47F6323F00F03F9
:10AA9000002BB8D16388013B9BB247F6FE618B4225
:10AAA000B1D801922388002BD7D0238804EB8303ED
:10AAB00023F47F6222F00F029342D2D06288B2F573
:10AAC000FE4FD6D1CDE7124A526901208DF8080019
:10AAD0000392009A059204930E4A02A900F0BAFF6D
:10AAE00070B90B49019B23F003024B6913444B617E
:10AAF00014B1074B1C618BE77846FDF71FFEF8E7A2
:10AB0000002000E0012006B0BDE8F0810120FAE756
:10AB10005C3700207A37002000B585B0274B002233
:10AB20001A7040F6F8731B68B3F1FF3F09D0B3F118
:10AB3000FF3F0CD07BB1B3F1FF3F37D0A3F580527C
:10AB40000FE01F4A1268B2F1FF3FF0D103E01C4A48
:10AB50001268002AEFD14FF080514B690A6902FB5D
:10AB600003F2A2F58052174B1A60174B1B6813F4BF
:10AB7000801F16D0154B1B68062B12DD144BD3F823
:10AB8000043540F6F8710968B1F1FF3F13D0029225
:10AB90000191104A009240F276220F49072003F0FB
:10ABA000AFFCFFF795FD05B05DF804FB044B1A6898
:10ABB000A2F58052D5E702490968E8E77837002016
:10ABC000141000107C370020482E0020442E002056
:10ABD00000100140805904006859040010B5044673
:10ABE000B0B1104B1B78BBB10E4BD968E3685879F4
:10ABF000A3EB0032914211D31A79121A02F57F2287
:10AC000002F6FF7203EB0233994209D8012004E0F7
:10AC10007846FDF793FDE4E7002010BD0020FCE737
:10AC20000020FAE75C370020024B1878003818BF84
:10AC3000012070475C37002010B50446124B1B788A
:10AC4000BBB92378032B18D10F4B9C60E268DA6004
:10AC50000E4B1B78ABB10A220B4B5A6000221A76BE
:10AC6000012018705A760A4900F0E2FEFFF7E8FC6E
:10AC700010BD7846FDF762FDE3E77846FDF75EFD1F
:10AC8000E2E70022E8E700BF5C37002078370020C9
:10AC900025A70200014B1868704700BF7C370020D1
:10ACA00010B5044680B163681BB123680BB1A3687B
:10ACB00013B97846FDF742FDA3685A1E134207D127
:10ACC0000023E360236110BD7846FDF737FDEAE716
:10ACD0007846FDF733FDF3E7F8B500B30F460446B9
:10ACE0008368F3B1EFF3108572B60369C2689342CB
:10ACF00011D0016842688668013E334003FB0211AF
:10AD000017B1384619F0BDFE23690133236155B9E7
:10AD100062B62846F8BD05B962B60525F9E70E25E5
:10AD2000F7E70925F5E70025F3E700000246C0F341
:10AD30000B0040BB49B310B401F6FF710C0B144B70
:10AD40000221C3F80415124BD3F80034002BFAD0BB
:10AD500001460AE00E4BC3F808250D4BD3F800342A
:10AD6000002BFAD002F580520131A142F2D3084BF8
:10AD70000022C3F80425064BD3F80034002BFAD088
:10AD80005DF8044B7047102070470920704700BFE2
:10AD900000E0014010F0030F2FD110B4044611F071
:10ADA000030F2CD16AB312F0030F2CD19008174B6C
:10ADB0000122C3F80425154BD3F80034002BFAD038
:10ADC00002E0043404311046421E50B10B68B3F166
:10ADD000FF3FF6D023600D4BD3F80034002BFAD0A0
:10ADE000EFE70A4B0022C3F80425084BD3F80034E0
:10ADF000002BFAD05DF8044B7047102070471020EC
:10AE0000F8E70920F6E70920F4E700BF00E0014079
:10AE1000094B1B7813F0040F02D00378122B00D0DB
:10AE20007047064B1A68064B5A60034B1A786FF34B
:10AE300082021A70F4E700BF28380020183800207A
:10AE4000B437002010B582B001900C46000C0128E8
:10AE500010D12368094A136009490B7843F00103B4
:10AE60000B705B0883F0010303F0010313710020F2
:10AE700002B010BD7846FDF761FCEAE71838002003
:10AE80002838002010B582B001900C46000C022832
:10AE90000FD12268094B1A6022791A71002058716B
:10AEA0009871D871064A137843F00203137002B008
:10AEB00010BD7846FDF742FCEBE700BF10380020DC
:10AEC0002838002010B582B001900C46000C0328F1
:10AED00006D1054B186820601B79237102B010BDA4
:10AEE0007846FDF72BFCF4E71838002010B582B047
:10AEF00001900C46000C03280CD1084B2068186008
:10AF000022791A71064A137843F001031370002066
:10AF100002B010BD7846FDF711FCEEE718380020AE
:10AF20002838002010B582B001900C46000C04288F
:10AF300005D1054B03CB2060616002B010BD78469F
:10AF4000FDF7FCFBF5E700BF1038002010B582B01C
:10AF500001900C46000C04280BD1084B2068616856
:10AF600003C3074A137843F002031370002002B0B2
:10AF700010BD7846FDF7E2FBEFE700BF1038002078
:10AF80002838002000B583B00190000C032806D1BA
:10AF9000054B00221A601A7103B05DF804FB784675
:10AFA000FDF7CCFBF4E700BF1838002000B583B0F4
:10AFB0000190000C042806D1054B00221A605A604B
:10AFC00003B05DF804FB7846FDF7B8FBF4E700BF7B
:10AFD0001038002000B585B0184B1B7813F0400FD7
:10AFE0000FD0164B1B7813F0040F07D1144B5B687E
:10AFF00003F500530193B3F1807F06D905B05DF8E6
:10B0000004FB7846FDF79AFBEBE70E4B1B788DF8B7
:10B0100008300A4A137843F0040313700023ADF894
:10B020000C300323ADF80E3001A9039806F0EEF9B9
:10B030000028E3D07846FDF781FBDFE728380020C1
:10B04000B43700202938002000B585B00022ADF8C3
:10B0500009200F4B996801911B7B8DF808300D4931
:10B060000B780133DBB20B708DF80B30ADF80C2090
:10B070000423ADF80E300DEB0301039806F0C6F97A
:10B0800010B905B05DF804FB7846FDF757FBF8E70B
:10B09000B43700202938002000B585B00F4B9A68DE
:10B0A00001921A7B8DF808201B8AADF809300C4BF1
:10B0B0001B788DF80B300023ADF80C300423ADF86D
:10B0C0000E300DEB0301039806F0A0F910B905B09E
:10B0D0005DF804FB7846FDF731FBF8E7B437002054
:10B0E0002938002000B58DB00B4B1B7B012B0ED0F7
:10B0F000094A926804928DF80830039002238DF873
:10B10000043001A8FEF722FF0DB05DF804FB024AEF
:10B110009268013A0492EEE7B437002008B51D4862
:10B120001D4B036000F030FF1C4B1B7813F0200F09
:10B130002AD103F00303032B14D1194B1968194AC0
:10B14000916019791173B3F805001082DB79164A02
:10B150001370164A1279934217D0B1B9114B0022DD
:10B160001A6007E00F4B00221A609A601A731A8265
:10B17000FFF76AFF0B4B1A685A60084A137843F0CE
:10B1800040031370FFF726FF08BD084B1A68054BF4
:10B190001A60EFE70438002011AE020028380020C2
:10B1A00010380020B437002029380020183800203B
:10B1B00010B582B00024ADF800400123ADF8023094
:10B1C000009806F054F9ADF804400223ADF80630BB
:10B1D000019806F04CF902B010BD000008B500203F
:10B1E00006F06CF9084B00221A605A609A60DA6027
:10B1F0001A61064A137803F0DF0343F0400313702B
:10B20000FFF7E8FE08BD00BFB43700202838002053
:10B2100038B50C4D00242C606C60AC60EC602C6187
:10B2200001F09CF9084B5860084A9A60084ADA60B5
:10B230001C615C61074B1A7864F3C3021A706C607E
:10B2400038BD00BFB437002090370020B1B30200F2
:10B25000008793032838002008B50C4B1B7813F0A7
:10B26000100F00D008BD0A480A4B036000F08CFEA6
:10B27000FFF754FFFFF79CFF074801F0F3F8034A7C
:10B28000137843F010031370ECE700BF2838002058
:10B29000A837002009B5020090370020034B18782A
:10B2A000800880F0010000F001007047283800207D
:10B2B00010B501F0D5FE174B1B7B1BBB154B9B7BC1
:10B2C0002BBB144B1A8A41F282639A4206D8124B66
:10B2D0001B7813F0080F05D0012300E001231BB9F0
:10B2E000082410E00023FAE70A4B01221A73002415
:10B2F0001C829A6801329A60FFF7A6FE2046FFF78B
:10B30000F1FE00E0082401F0EFFE204610BD082405
:10B31000F9E700BFB43700202838002010B501F04D
:10B320009FFE214B5B7BABB11F4B9B7B03BB1E4B3B
:10B330001A8A41F282639A4206D81C4B1B7813F09A
:10B34000080F05D0012300E001239BB1012302E097
:10B350000023FAE700231C460BB3134B00225A7359
:10B360001B7B4BB1012B0ED07846FDF7E7F916E0B9
:10B370000023F0E70023EEE7FFF79AFF78B1784665
:10B38000FDF7DCF90BE0084B0020186058601873DB
:10B390001882FFF7A7FEFFF757FEFFF71BFE01F02D
:10B3A000A3FE204610BD00BFB4370020283800207F
:10B3B00008B52C4B1B7BDBB1012B2ED07846FDF75B
:10B3C000BDF9284A138A01339BB21382264AA2FB95
:10B3D00003121209C2EB0212A3EB42039BB2002B31
:10B3E0003DD0204B5B8A13B1013B1E4A538208BDFE
:10B3F0001C4B1A8A41F282639A4206D81B4B1B7877
:10B4000013F0080F07D0012300E00123002BD8D050
:10B41000FFF784FFE5E70023F8E7124B1B8A41F2B0
:10B420008262934206D8114A127812F0080F14D0A3
:10B43000012200E00122002AC3D042F2B01293425E
:10B4400002D9084B01225A73FFF768FF0028C8D1C0
:10B45000044B5B7B012BB4D1C3E70022EBE7FFF782
:10B460001BFEBEE7B4370020898888882838002072
:10B4700010B5244B1B7B002B35D10446214B5B8A36
:10B480002BBB1AB91F4B9B688B4205D3FAB11D4BDE
:10B490009B6801338B421AD21A4B9B682A338B422A
:10B4A00023D3184B9B7B03BB164B996000221A6079
:10B4B0005A601A8242F6065159825A731A73FFF77C
:10B4C000C3FDFFF787FD2046FFF70CFE0DE062B1DC
:10B4D0000C4B9B6801338B4207D10A4B01225A73F4
:10B4E000FFF71CFF01E0012B00D010BD002AFCD1AA
:10B4F000044B9B688B42F8D1024B01225A73FFF731
:10B500000DFFF2E7B43700200378042B00D070471A
:10B5100043681B78002BFAD010B58468027E437E06
:10B52000012A14BF00220122416904F11000FFF733
:10B530009FFF10BD08B538B10D4B01229A730D4A1B
:10B5400013680133136008BD0A4B1B685BB1094ADD
:10B550001368013B1360002BF5D1054B00229A7351
:10B56000FFF7DCFEEFE77846FDF7E8F8EFE700BF0E
:10B57000B43700208437002000B58DB0ADF8080046
:10B580008DF81020039103238DF8043001A8FEF7F5
:10B59000DDFC0DB05DF804FB014B9868704700BFFF
:10B5A000B4370020054B1B7B012B02D0034B98685E
:10B5B0007047024B98680138704700BFB4370020CD
:10B5C0001D4B1B7813F0400F34D070B504460D4668
:10B5D0001A4B1A685B689A4228D2184B1B7B012BC6
:10B5E00017D0174B9A4216D2144B1A685B68403B2F
:10B5F0009A4218D2EFF3108672B6104A1368591C9B
:10B6000011602B60FFF7CEFF206006B962B6002004
:10B6100070BD0C4BE6E7094B01225A73FFF77EFE23
:10B620000028E7D1E0E7FFF7D5FCE3E7FFF7D2FC1E
:10B630000F20EDE70F20704728380020B437002096
:10B64000FFFF7F0000E0FF00044B9B68584010F0B4
:10B65000010F00D0013B1846704700BFB4370020EF
:10B66000014B187B704700BFB4370020F8B5104B72
:10B670001B7813F0200F01D00820F8BD17460C4EA0
:10B6800043F0200333700B4DA860297300242C82F3
:10B69000FFF7DAFC2046FFF725FD2F606F60337857
:10B6A00043F040033370FFF795FC2046E5E700BF09
:10B6B00028380020B437002008B50022FFF7D6FF55
:10B6C00008BD00002DE9F041002624E02449BC23F8
:10B6D00003FB04F3CA5A0132CA520221284602F07F
:10B6E000C1FC01370221284602F08CFC014679B1E9
:10B6F0001B4ABC2303FB0423D3F80880B8F1000FD6
:10B70000E4D0BC2303FB04F3D25A3046C047DDE744
:10B7100097B90136F6B2022E1FD83446BC2303FB7C
:10B7200006F308330E4D1D4404350221284602F06D
:10B7300069FC01460027DAE7284602F0FBFC0828EE
:10B74000E7D1074BBC2202FB0434A368002BE0D0F6
:10B750000022044930469847DBE70120BDE8F0812C
:10B7600034380020F059040008B5082383731023EF
:10B77000437300F11C0343610323037300F11803B7
:10B7800003610C3002F0A8FC08BD000008B5037886
:10B79000012B06D0022B06D07846FCF7CFFF002005
:10B7A00002E0292000E0014808BD00BF084C01006C
:10B7B00008B50378012B07D0022B15D07846FCF78B
:10B7C000BDFF4FF4FA730AE08368591A21F00303AE
:10B7D00003EB9103DB0003EB910303F5FA730748D6
:10B7E000984228BF184608BD8368591A090B044BB4
:10B7F00003FB01F303F5FA73F1E700BF6085010075
:10B80000084C010038B5044601210C3002F0FAFB67
:10B81000054678B1084BC4F89C300023C4F8A0302A
:10B820006168FFF7C5FFC4F8A800C4F8AC40012365
:10B8300084F8B830284638BD59B9020010B504461E
:10B84000FFF7E0FF20B104F19C000EF0E9FE00B923
:10B8500010BD7846FCF772FFFAE70000F8B5054620
:10B860000C46164617680378012B19D11249A1FB23
:10B87000043149098B00AC68E41BB4EB810F00D3A1
:10B880001C468CB1686827F00307E96822463944F2
:10B890003844FFF77FFA58B933681C443460F8BD68
:10B8A0007846FCF74BFFE1E77846FCF747FFE9E70E
:10B8B0007846FCF743FFEFE77D0CCEC7F8B50646A8
:10B8C0000C46154617680378022B17D1114BA3FBC2
:10B8D00004231B0C1A03B468E41BB4EB033F00D32E
:10B8E00014467CB1706827F0030721463844FFF7FF
:10B8F0001DFA58B92B681C442C60F8BD7846FCF73B
:10B900001DFFE3E77846FCF719FFEBE77846FCF705
:10B9100015FFEFE7EB0661C538B505460C46114645
:10B920002378012B06D0022B0FD07846FCF706FFB8
:10B93000002304E0021D2046FFF790FFA36868681B
:10B94000984214BF0020012038BD021D2046FFF799
:10B95000B5FFA368F3E700002DE9F8430F46D1F8DF
:10B96000A850254B1B786BB90446A5F5FA7501F173
:10B970000C080121404602F045FB064648B14FF055
:10B98000000924E00EF088FE002387F8B830BDE8F7
:10B99000F8837846FCF7D2FEF1E70EF07DFE012138
:10B9A000404602F05FFB00237B6087F8B830134B02
:10B9B000186801F0EDFB3846FFF740FFE7E7A4EB1E
:10B9C00000093046FFF7E2FE4844A8420DD8A5EB37
:10B9D000090231463846FFF79FFF0028DDD101F00C
:10B9E00011FAB0EB0409ECD5E9E70EF055FE384644
:10B9F000FFF724FFCBE700BF303800202C380020B1
:10BA000010B5084801F0A4FB074B1860002406E0BD
:10BA1000064BBC2000FB0430FFF7A6FE0134022CCD
:10BA2000F6D910BDC5B602002C38002034380020ED
:10BA300038B504460D46022805D80548BC2303FB4B
:10BA40000404A56038BD7846FCF778FEF5E700BF32
:10BA5000343800202DE9F84305460C4617460228E5
:10BA600016D8CCB12378012B1AD0022B3ED16368B3
:10BA7000C3F30B03002B31D1A368C3F30B03002BDB
:10BA800030D1A368002B34D17846FCF757FE30E064
:10BA90007846FCF753FEE4E77846FCF74FFEE1E713
:10BAA000636813F0030F0DD1E36813F0030F0DD19A
:10BAB000A36813F0030F0DD1A368D3B97846FCF740
:10BAC0003DFE16E07846FCF739FEEDE77846FCF7D8
:10BAD00035FEEDE77846FCF731FEEDE77846FCF7FA
:10BAE0002DFEC9E77846FCF729FECAE77846FCF741
:10BAF00025FEEFF3108872B6BC2606FB05F606F1AC
:10BB000008032A4E1E4404360021304602F07AFA19
:10BB1000814678B30021304602F0A4FA20686168BB
:10BB2000A268E368C9F80000C9F80410C9F8082041
:10BB3000C9F80C302FB11D4ABC2303FB05235B88D9
:10BB40003B801A4ABC2303FB05235A8801325A80E2
:10BB500093F8B83083B9164B1B7813B10024A14673
:10BB60000CE0124BBC2000FB0530FFF74BFE81467A
:10BB7000002403E0042401E00024A146B8F1000FF2
:10BB800000D162B6B9F1000F09D0BC2000FB05F06E
:10BB90009830064D284404300EF042FD10B920467E
:10BBA000BDE8F8837846FCF7C9FDF8E73438002093
:10BBB0003038002038B50446EFF3108572B610B95E
:10BBC000164B1B6873B18CB1144A136801331360B0
:10BBD000124B1B68003B18BF0123114A137005B9B3
:10BBE00062B638BD7846FCF7A9FDECE70B4B1C6844
:10BBF000013C1C6034B1EBE7BC2000FB0420FFF7E4
:10BC00001DFE0134022CE3D8064ABC2303FB0423A7
:10BC100093F8B830002BF4D1EEE700BF683A00206B
:10BC2000303800203438002018B1830B024AD05C31
:10BC300070470020704700BF005A040012DF7047B1
:10BC400000B583B001F0F2FE40B10C4B1B6813F05D
:10BC5000400F03D00A4B1B68012B02DC03B05DF8D8
:10BC600004FB084BD3F804350190074A0092752273
:10BC70000649022002F044FCF0E700BF482E0020F5
:10BC8000442E002000100140505A0400445A040081
:10BC900000B58DB0114B1B78022B06D07846FCF70F
:10BCA0004DFD01200DB05DF804FBFFF7F7FA18B960
:10BCB0000B48FEF773F9F4E70FF026FA074B03225F
:10BCC0001A702C22002101A818F004FF1D238DF802
:10BCD000043001A8FEF73AF9E3E700BF703A00200C
:10BCE000382E00200B4B1B78042B00D0704700B57A
:10BCF0008DB0084B05221A702C22002101A818F0E3
:10BD0000E9FE1C238DF8043001A8FEF71FF90DB0E1
:10BD10005DF804FB703A002008B50378122B00D0C0
:10BD200008BD0448FEF74AF9034B186801F030FAE1
:10BD3000F6E700BF382E00206C3A002070B58AB0BC
:10BD40000FF024FA48B3064600238DF8103005ACF6
:10BD500005460FCD0FC42B682360727D052A04D9D8
:10BD6000337D03F00F03072B1ED1174B1A688AB1DE
:10BD700004AB0393337DC3F303038DF80430737D69
:10BD8000062B1BD9063B8DF8053006F11D030293E7
:10BD900001A8904730460FF0D9F90FF013FA80F060
:10BDA0000100C0B20AB070BD307D04AB063A06F1A6
:10BDB0001D0100F00F000DF0EFFED6E700238DF817
:10BDC00005300293E4E700BF743A002070B582B0FA
:10BDD000314B1B78002B54D10446002855D0067AED
:10BDE0000F2E01D0062E52D106F012FBE06870B182
:10BDF000FCF7B6FC0DF10700FFF720FF0546002811
:10BE000040D19DF80730012B04D002253AE0FCF721
:10BE1000B5FCEFE7FCF7D8FC00F00CFB304601F076
:10BE2000C7F8E07800F030F900F0B8FE0EF07AFBC9
:10BE30001A480FF063FA0EF057F80DF08FFEFFF777
:10BE4000DFFD05F0A7FA00F005FD06F0A1FA06F007
:10BE50003FF8204601F0F8FCFDF732FD04F0BAFC93
:10BE6000FCF7BAFB08B1062813D10D4801F070F9B0
:10BE70000C4B18600C4B00221A60074B01221A7001
:10BE800000E00825284602B070BD0E25FAE7072518
:10BE9000F8E70546F6E700BF703A00203DBD020016
:10BEA00091BC02006C3A0020743A002010B582B0B8
:10BEB000204B1B78012B0DD05AB2002A35D0043B01
:10BEC000DBB2012B33D80EF09BFB044628B320468F
:10BED00002B010BD01F0C8FCFDF734FDFCF77CFB9F
:10BEE0000446B8B1062815D0134B1B6813F4804FD5
:10BEF000EDD0124B1B68012BE9DD114BD3F8043553
:10BF00000190104A00924FF4C2720F49022002F0D1
:10BF1000F7FADCE701F078F8D5E7064B02221A7051
:10BF20000A4B186801F034F9D1E70824CFE7082458
:10BF3000CDE700BF703A0020482E0020442E00209C
:10BF4000001001407C5A0400445A04006C3A00205E
:10BF500008B5094B1B78032B01D0082008BD064B00
:10BF600004221A7005480EF0FFFA0028F6D0784631
:10BF7000FCF7E4FB0020F1E7703A0020E5BC02008A
:10BF800008B5FDF7E3FC08BD08B5FEF707F808BDE6
:10BF900008B5FEF713F808BD08B500F0C5FD002090
:10BFA00008BD08B507F08CFE08BD0000064A1368FE
:10BFB00001331360B3F1704F02D0034B1868704720
:10BFC000134601221A60F8E7783A002010B50446BB
:10BFD00018B100232360636010BD7846FCF7AEFB08
:10BFE000F7E738B50C46054668B184B100236360B5
:10BFF000EFF3108372B62A686AB16A6854606C60A5
:10C0000003B962B638BD7846FCF798FBEDE7784691
:10C01000FCF794FBEAE72C60F1E710B5044658B151
:10C02000EFF3108372B6206808B14268226022687C
:10C0300032B103B962B610BD7846FCF77FFBEFE77B
:10C040006260F6E710B5044608B1206810BD784676
:10C05000FCF774FBF9E735DF7047000008B54FF0D7
:10C06000FF30FFF7F8FFBFF34F8F0549CA6802F4AE
:10C07000E062044B1343CB60BFF34F8F00BFFDE77B
:10C0800000ED00E00400FA05072814D8DFE800F00E
:10C09000080C1504110F0A0664207047142070471D
:10C0A000FA2070471E2070474FF4FA707047322014
:10C0B00070474B207047FA20704796207047000069
:10C0C000024B5868103840B2704700BF00ED00E0E6
:10C0D000034600280FDB5B11084A52F82330424226
:10C0E00000F01F0002F01F0258BF504223FA00F078
:10C0F00000F00100704700F11F03ECE700E100E0F1
:10C1000046DF7047F8B504460D464B1EDBB2012BE7
:10C1100009D8002323616361A361E3612046FFF72F
:10C12000EFFF012016E07846FCF708FBF1E7CA5C58
:10C13000CE185200D2B2767842EAD612CA540133EF
:10C140009BB20E2BF3D9CB7B5B00CB73002F08DBAC
:10C150000130C0B2A8420BD8214611F9207F00233C
:10C16000EFE794F82F3083F0870384F82F30EFE760
:10C17000F8BD2DE9F04190B084460C4696461F4626
:10C1800002F10F084FEA281604AD0068DCF804102D
:10C19000DCF80820DCF80C300FC50EF00F055FEA64
:10C1A000181302D07DB1002300E00023984663B14C
:10C1B000012104A8FFF7A6FFB8F1000F1AD0701EE6
:10C1C000000110230EE00123F0E70221F1E7013B1B
:10C1D0009BB22218D25C10A9194411F8101C4A40D5
:10C1E0000DF80320002BF2D100250C950D950E952E
:10C1F0000F9533E0711EADB22A4604EB011168467B
:10C2000018F03FFC80230DF805306B1C03E0002282
:10C210000DF8032001330F2BF9DD10230AE0013B59
:10C220009BB21DF8032010A9194411F8101C4A40B4
:10C230000DF80320002BF2D1D6E7013A92B210ABF1
:10C24000134413F8100C63189B5C584008AB9854C7
:10C25000002AF2D104A8FFF753FF0135731EAB4249
:10C2600002DD29011022F3E710230AE0013B9BB213
:10C2700010AAD11811F8402C11F8101C4A4008A936
:10C28000CA54002BF2D104A8FFF73AFF0CAC0FCC34
:10C2900038607960BA60FB6010B0BDE8F0810000E2
:10C2A00010B50446134B1B6893B14168114B1B68D2
:10C2B0005B68CB1A002B0BDB0E4B1B6818465B69C7
:10C2C0001BB15A68521A002AF8DB6361446103E02B
:10C2D000084B1A6862611C60064A93889BB201335E
:10C2E0009BB2938013B10123237010BD7846FCF7F5
:10C2F00025FAF8E7843A002038B505461CE0784670
:10C30000FCF71CFA6369204A136000236361938879
:10C310009BB2591E89B29180F3B1A36803B3022383
:10C320002370A36821692846984700F017F905464D
:10C330002378DBB2022B17D0134B1B681BB3124BB5
:10C340001B685B685B1B642B1DD50F4B1C68237837
:10C35000DBB2012BD6D0D2E77846FCF7EFF9DCE769
:10C360007846FCF7EBF9DAE7E26812B900232370AC
:10C37000E2E76368134463605B1B642BF9D42046D7
:10C38000FFF78EFFD8E738BD843A002010B5044689
:10C39000144B1B68834207D0124B1B68D3B15A69F8
:10C3A000A2420ED01346F9E743690E4A1360938800
:10C3B0009BB2591E89B2918063B97846FCF7BEF9E9
:10C3C00008E062695A6107498B889BB25A1E92B293
:10C3D0008A8013B10023237010BD7846FCF7AEF9B4
:10C3E000F8E700BF843A002008B5064B1B6833B15C
:10C3F000044B1B680449586800F05CF908BD00F064
:10C40000B7F9FBE7843A002025C4020008B500F024
:10C41000A5F8FFF771FF00F0A1F8FFF7E5FF012095
:10C4200008BD000008B5024B186800F0B1FE08BD59
:10C430007C3A002008B50023064A1370064A1360B0
:10C440005360064800F084FE054B186000F078F851
:10C4500008BD00BF803A0020843A00200DC40200CD
:10C460007C3A002010B50446154B1B789BB900F0B0
:10C4700063FFA0B1BCB1A368CBB12378DBB2012BC1
:10C4800019D0002363612046FFF70AFF00F066F829
:10C49000FFF7AAFF10BD7846FCF750F9E7E77846AA
:10C4A000FCF74CF9E6E77846FCF748F9E3E778460D
:10C4B000FCF744F9E1E77846FCF740F9E1E700BF13
:10C4C000803A002010B5044600F036FF50B16CB140
:10C4D0002046FFF75BFF0023636100F03FF8FFF7A2
:10C4E00083FF10BD7846FCF729F9F0E77846FCF7A2
:10C4F00025F9EDE738B504460D46104B1B788BB98E
:10C5000000F01AFF90B1ACB12046FFF73FFF0023C7
:10C51000636165602046FFF7C3FE00F01FF8FFF778
:10C5200063FF38BD7846FCF709F9E9E77846FCF780
:10C5300005F9E8E77846FCF701F9E5E7803A0020DD
:10C5400008B518F03BF900B108BD18F0AFF80028A5
:10C55000FAD07846FCF7F2F8F6E7000070B4EFF393
:10C56000108172B6184B1A68184BD3F80455D3F8DB
:10C570000431012B22D001B962B645EA02650026DA
:10C580006B01EA0E5B1B62EB0602510241EAD351DA
:10C590005802431941EB0600810141EA93619A0177
:10C5A000D31A61EB00005B1946EB000013F58043E2
:10C5B0007041DB0B43EA404070BC7047034BD3F83B
:10C5C00004550132D7E700BF8C3A0020001001402B
:10C5D00010B50A4B4FF40032C3F84823C3F80823C0
:10C5E000074B1B682BB1064B1C68FFF7B7FFA04732
:10C5F00010BD7846FCF7A2F8F5E700BF0010014037
:10C60000983A0020EFF3108172B6254B0022C3F850
:10C610000421244A13680133136001B962B6224B26
:10C620001B68002B3AD0204B1A68013A1A601B682D
:10C63000002B33D103F1804303F58833D3F804256D
:10C640001A4B1B689A421BD2EFF3108272B6144B3E
:10C65000D3F80435981C1549096888420DD3033373
:10C660000F49C1F8443502B962B60D4B4FF40032A0
:10C67000C3F84423C3F8042370470C4B1B68EFE74F
:10C6800010B50B4B1B682BB1094B1C68FFF766FFFD
:10C69000A04710BD7846FCF751F8F5E7704700BF9A
:10C6A000001001408C3A0020903A0020943A00207B
:10C6B000983A002030B583B00446002301930D461C
:10C6C000002936D0244B1D60FFF748FF031B002BC9
:10C6D00033DB0023590CD803204C214A00230019D6
:10C6E0004FF0000444EB010118F092F8EFF31083CF
:10C6F000019372B61B4BD3F80435032838BF0320CF
:10C70000C3F1FF1202F57F42824218D30344154A57
:10C71000C2F844354FF40033C2F84433C2F804334E
:10C72000114A1460114A1460019B03B962B603B048
:10C7300030BD7846FCF702F8C4E7231ACAE7034481
:10C7400003F17F4301331A0E013207490A6023F0D7
:10C750007F43064A1360E7E7983A002020A10700CC
:10C7600040420F0000100140903A0020943A00200F
:10C77000074B4FF40032C3F84823C3F808230023C3
:10C78000044A1360044A1360044A1360704700BFF0
:10C7900000100140903A0020943A0020983A00207E
:10C7A00030DF704731DF704710B4034602684068DD
:10C7B000A2EB70129C6880EAF4301860D9680C44CF
:10C7C0005C60114499601044D8605DF8044B704778
:10C7D00070B582B00D46064608B100240BE07846DD
:10C7E000FBF7ACFFF9E79DF807103019FFF7DAFF08
:10C7F0009DF807301C44A5420DD90DF10700FFF745
:10C80000CFFF9DF80730002BF7D02A1B9342EAD9BF
:10C810008DF80720E7E702B070BD000030B583B0A7
:10C8200005460024019404210DEB0100FFF7D0FF21
:10C83000074B2B60019B6B60AB60EB6003E028460D
:10C84000FFF7B2FF0134132CF9D903B030BD00BF9C
:10C85000ED5EEAF1704708B5032004F02FFE08BD35
:10C8600048DF704749DF70474ADF7047044B0122B9
:10C870005A7143F2B0629A6043F69822DA607047C8
:10C88000F83A0020094B03221A74094A5A611A68BF
:10C8900040F6D8639A4204D9054B43F2B0629A60DD
:10C8A0007047034B40F6D8629A607047D83A002030
:10C8B000F83A002008B50F4B1B78022B12D0032B3F
:10C8C00008D0012B03D07846FBF738FF0EE0022397
:10C8D00003740BE0084B00225A710849996008491B
:10C8E000D960827103230374034B4361014B00221F
:10C8F0001A7008BD093B0020F83A0020A08601000C
:10C90000FF1FA10738B504460025057401234371B4
:10C910000E4A13680133136000F0D2FA0DF036FFAF
:10C9200023680B4A1168283101FB03F1094AA2FB75
:10C930000121A3EB9141084A7839284600F03CFADE
:10C9400000B938BD7846FBF7F9FEFAE70C3B00204A
:10C95000F43A002083DE1B4385C8020010B504466C
:10C9600000238360C36003680D4A92680260817986
:10C9700091B10121017403B90A4B991A6161B1F5B2
:10C980007A7F01D39A4202D94FF47A736361FFF739
:10C990006DFF0123A37110BDFFF7B4FFF7E700BFE0
:10C9A000F83A00208096980010B50C4631B1C36863
:10C9B0000133C36042690368134403608368013331
:10C9C000836001220274426952084261012B0DD03A
:10C9D000022B19D042690368134417498B4222D8AD
:10C9E00040F6D7639A4221D800231DE0B2F5FA7FC2
:10C9F00005D040F6D8639A42ECD84361EAE7002CB0
:10CA0000F7D100234361E5E7C368022B06D0012B71
:10CA1000E0D1002CDED100234361DBE70268064B46
:10CA20009B1A4361D6E7002313B110BD0123FBE736
:10CA3000FFF768FFF9E700BF8096980043791BB9BC
:10CA40000D4B00221A70704710B504460DF0BAFE67
:10CA500023680A4A1068283003FB00F0084AA2FB4A
:10CA60000020A3EB9040783800F05AFA002363715D
:10CA7000014B00221A7010BD083B0020F43A002040
:10CA800083DE1B4308B5254B01221A71244B1B780A
:10CA900013B1244B1B781BB3204B00221A740428BB
:10CAA0001AD8DFE800F00314110C07001B48FFF749
:10CAB00055FF1CE001211948FFF776FF17E0002120
:10CAC0001648FFF771FF12E00DF00CFE0FE000F0CA
:10CAD000B9F90DF041FE0AE07846FBF72FFE06E0BB
